{
  "contractName": "Votes",
  "abi": [
    {
      "constant": true,
      "inputs": [
        {
          "name": "",
          "type": "uint256"
        }
      ],
      "name": "aspirant",
      "outputs": [
        {
          "name": "name",
          "type": "string"
        },
        {
          "name": "constituency",
          "type": "string"
        },
        {
          "name": "votesGanered",
          "type": "uint256"
        }
      ],
      "payable": false,
      "stateMutability": "view",
      "type": "function"
    },
    {
      "constant": true,
      "inputs": [],
      "name": "candidateNumber",
      "outputs": [
        {
          "name": "",
          "type": "uint256"
        }
      ],
      "payable": false,
      "stateMutability": "view",
      "type": "function"
    },
    {
      "constant": true,
      "inputs": [
        {
          "name": "",
          "type": "uint256"
        }
      ],
      "name": "voter",
      "outputs": [
        {
          "name": "name",
          "type": "string"
        },
        {
          "name": "constituency",
          "type": "string"
        },
        {
          "name": "voted",
          "type": "bool"
        }
      ],
      "payable": false,
      "stateMutability": "view",
      "type": "function"
    },
    {
      "constant": true,
      "inputs": [],
      "name": "voterNumber",
      "outputs": [
        {
          "name": "",
          "type": "uint256"
        }
      ],
      "payable": false,
      "stateMutability": "view",
      "type": "function"
    },
    {
      "constant": false,
      "inputs": [
        {
          "name": "_name",
          "type": "string"
        },
        {
          "name": "_constituency",
          "type": "string"
        }
      ],
      "name": "add_candidate",
      "outputs": [],
      "payable": false,
      "stateMutability": "nonpayable",
      "type": "function"
    },
    {
      "constant": false,
      "inputs": [
        {
          "name": "_name",
          "type": "string"
        },
        {
          "name": "_constituency",
          "type": "string"
        }
      ],
      "name": "add_voter",
      "outputs": [],
      "payable": false,
      "stateMutability": "nonpayable",
      "type": "function"
    },
    {
      "constant": false,
      "inputs": [],
      "name": "vote",
      "outputs": [],
      "payable": false,
      "stateMutability": "nonpayable",
      "type": "function"
    }
  ],
  "bytecode": "0x608060405260008055600060015534801561001957600080fd5b506108af806100296000396000f3fe608060405234801561001057600080fd5b506004361061007d5760003560e01c8063598d29b91161005b578063598d29b9146102c9578063632a9a52146103f2578063ab8ed1ba146103fa578063d13c008d1461045d5761007d565b80630c178f871461008257806321fe940e146101ad5780633b802421146102af575b600080fd5b6101ab6004803603604081101561009857600080fd5b810190602081018135600160201b8111156100b257600080fd5b8201836020820111156100c457600080fd5b803590602001918460018302840111600160201b831117156100e557600080fd5b91908080601f0160208091040260200160405190810160405280939291908181526020018383808284376000920191909152509295949360208101935035915050600160201b81111561013757600080fd5b82018360208201111561014957600080fd5b803590602001918460018302840111600160201b8311171561016a57600080fd5b91908080601f016020809104026020016040519081016040528093929190818152602001838380828437600092019190915250929550610465945050505050565b005b6101ca600480360360208110156101c357600080fd5b50356104e5565b604051808060200180602001848152602001838103835286818151815260200191508051906020019080838360005b838110156102115781810151838201526020016101f9565b50505050905090810190601f16801561023e5780820380516001836020036101000a031916815260200191505b50838103825285518152855160209182019187019080838360005b83811015610271578181015183820152602001610259565b50505050905090810190601f16801561029e5780820380516001836020036101000a031916815260200191505b509550505050505060405180910390f35b6102b7610624565b60408051918252519081900360200190f35b6101ab600480360360408110156102df57600080fd5b810190602081018135600160201b8111156102f957600080fd5b82018360208201111561030b57600080fd5b803590602001918460018302840111600160201b8311171561032c57600080fd5b91908080601f0160208091040260200160405190810160405280939291908181526020018383808284376000920191909152509295949360208101935035915050600160201b81111561037e57600080fd5b82018360208201111561039057600080fd5b803590602001918460018302840111600160201b831117156103b157600080fd5b91908080601f01602080910402602001604051908101604052809392919081815260200183838082843760009201919091525092955061062a945050505050565b6101ab610698565b6104176004803603602081101561041057600080fd5b503561069a565b60408051821515918101919091526060808252845190820152835181906020808301916080840191880190808383600083156102115781810151838201526020016101f9565b6102b76107e2565b60018054810190819055604080516060810182528481526020808201859052600082840181905293845260038152919092208251805191926104ac928492909101906107e8565b5060208281015180516104c592600185019201906107e8565b50604091909101516002909101805460ff19169115159190911790555050565b600260208181526000928352604092839020805484516001821615610100026000190190911693909304601f81018390048302840183019094528383529283918301828280156105765780601f1061054b57610100808354040283529160200191610576565b820191906000526020600020905b81548152906001019060200180831161055957829003601f168201915b505050505090806001018054600181600116156101000203166002900480601f0160208091040260200160405190810160405280929190818152602001828054600181600116156101000203166002900480156106145780601f106105e957610100808354040283529160200191610614565b820191906000526020600020905b8154815290600101906020018083116105f757829003601f168201915b5050505050908060020154905083565b60005481565b6000805460010180825560408051606081018252858152602080820186905281830185905292845260028352922082518051919261066d928492909101906107e8565b50602082810151805161068692600185019201906107e8565b50604082015181600201559050505050565b565b60036020908152600091825260409182902080548351601f600260001961010060018616150201909316929092049182018490048402810184019094528084529092918391908301828280156107315780601f1061070657610100808354040283529160200191610731565b820191906000526020600020905b81548152906001019060200180831161071457829003601f168201915b505050505090806001018054600181600116156101000203166002900480601f0160208091040260200160405190810160405280929190818152602001828054600181600116156101000203166002900480156107cf5780601f106107a4576101008083540402835291602001916107cf565b820191906000526020600020905b8154815290600101906020018083116107b257829003601f168201915b5050506002909301549192505060ff1683565b60015481565b828054600181600116156101000203166002900490600052602060002090601f016020900481019282601f1061082957805160ff1916838001178555610856565b82800160010185558215610856579182015b8281111561085657825182559160200191906001019061083b565b50610862929150610866565b5090565b61088091905b80821115610862576000815560010161086c565b9056fea165627a7a72305820c07576f9b8d33f661e3df3b4921c6f46ab6b56a6c6e9e5460fbf393321d9be600029",
  "source": "pragma solidity ^0.5.1;\n\ncontract Votes{\n    // add candidates\n    // add voters\n    // vote for the candidates\n    // display the total number of votes ganered by each candidate\n\n    uint256 public candidateNumber = 0;\n    uint256 public voterNumber = 0;\n\n    struct Candidate{\n        string name;\n        string constituency;\n        uint votesGanered;\n    }\n\n    struct Voter{\n        string name;\n        string constituency;\n        bool voted;\n    }\n\n    mapping(uint256 => Candidate) public aspirant;\n    mapping(uint256 => Voter) public voter;\n\n    function add_candidate(string memory _name, string memory _constituency) public {\n        candidateNumber += 1;\n        aspirant[candidateNumber] = Candidate(_name, _constituency, 0);\n    }\n\n    function add_voter(string memory _name, string memory _constituency) public {\n        voterNumber ++;\n        voter[voterNumber] = Voter(_name, _constituency, false);\n    }\n\n    function vote() public {\n        // Increase the votesGanered value by one\n    }\n}\n",
  "sourcePath": "/Volumes/Work/Code_Projects/VOTING TWO/contracts/Votes.sol",
  "compiler": {
    "name": "solc",
    "version": "0.5.8+commit.23d335f2.Emscripten.clang"
  },
  "schemaVersion": "3.0.16",
  "updatedAt": "2019-10-15T17:32:58.992Z",
  "devdoc": {
    "methods": {}
  },
  "userdoc": {
    "methods": {}
  }
}